{
    "contractName": "TokenSwap",
    "abi": [
        {
            "inputs": [
                {
                    "internalType": "address",
                    "name": "_admin",
                    "type": "address"
                },
                {
                    "internalType": "address",
                    "name": "_transferToken",
                    "type": "address"
                },
                {
                    "internalType": "address",
                    "name": "_mintableToken",
                    "type": "address"
                },
                {
                    "internalType": "uint256",
                    "name": "_rate",
                    "type": "uint256"
                },
                {
                    "internalType": "uint256",
                    "name": "_transferTokenFeePercentage",
                    "type": "uint256"
                },
                {
                    "internalType": "uint256",
                    "name": "_mintableTokenFeePercentage",
                    "type": "uint256"
                }
            ],
            "stateMutability": "nonpayable",
            "type": "constructor"
        },
        {
            "anonymous": false,
            "inputs": [
                {
                    "indexed": false,
                    "internalType": "uint256",
                    "name": "transferTokenFeePercentage",
                    "type": "uint256"
                },
                {
                    "indexed": false,
                    "internalType": "uint256",
                    "name": "mintableTokenFeePercentage",
                    "type": "uint256"
                }
            ],
            "name": "FeesSet",
            "type": "event"
        },
        {
            "anonymous": false,
            "inputs": [
                {
                    "indexed": false,
                    "internalType": "address",
                    "name": "account",
                    "type": "address"
                }
            ],
            "name": "Paused",
            "type": "event"
        },
        {
            "anonymous": false,
            "inputs": [
                {
                    "indexed": false,
                    "internalType": "uint256",
                    "name": "newRate",
                    "type": "uint256"
                }
            ],
            "name": "RateSet",
            "type": "event"
        },
        {
            "anonymous": false,
            "inputs": [
                {
                    "indexed": true,
                    "internalType": "bytes32",
                    "name": "role",
                    "type": "bytes32"
                },
                {
                    "indexed": true,
                    "internalType": "bytes32",
                    "name": "previousAdminRole",
                    "type": "bytes32"
                },
                {
                    "indexed": true,
                    "internalType": "bytes32",
                    "name": "newAdminRole",
                    "type": "bytes32"
                }
            ],
            "name": "RoleAdminChanged",
            "type": "event"
        },
        {
            "anonymous": false,
            "inputs": [
                {
                    "indexed": true,
                    "internalType": "bytes32",
                    "name": "role",
                    "type": "bytes32"
                },
                {
                    "indexed": true,
                    "internalType": "address",
                    "name": "account",
                    "type": "address"
                },
                {
                    "indexed": true,
                    "internalType": "address",
                    "name": "sender",
                    "type": "address"
                }
            ],
            "name": "RoleGranted",
            "type": "event"
        },
        {
            "anonymous": false,
            "inputs": [
                {
                    "indexed": true,
                    "internalType": "bytes32",
                    "name": "role",
                    "type": "bytes32"
                },
                {
                    "indexed": true,
                    "internalType": "address",
                    "name": "account",
                    "type": "address"
                },
                {
                    "indexed": true,
                    "internalType": "address",
                    "name": "sender",
                    "type": "address"
                }
            ],
            "name": "RoleRevoked",
            "type": "event"
        },
        {
            "anonymous": false,
            "inputs": [
                {
                    "indexed": true,
                    "internalType": "address",
                    "name": "user",
                    "type": "address"
                },
                {
                    "indexed": false,
                    "internalType": "uint256",
                    "name": "amount",
                    "type": "uint256"
                },
                {
                    "indexed": false,
                    "internalType": "uint256",
                    "name": "receivedAmount",
                    "type": "uint256"
                }
            ],
            "name": "SwappedMintableToTransfer",
            "type": "event"
        },
        {
            "anonymous": false,
            "inputs": [
                {
                    "indexed": true,
                    "internalType": "address",
                    "name": "user",
                    "type": "address"
                },
                {
                    "indexed": false,
                    "internalType": "uint256",
                    "name": "amount",
                    "type": "uint256"
                },
                {
                    "indexed": false,
                    "internalType": "uint256",
                    "name": "receivedAmount",
                    "type": "uint256"
                }
            ],
            "name": "SwappedTransferToMintable",
            "type": "event"
        },
        {
            "anonymous": false,
            "inputs": [
                {
                    "indexed": false,
                    "internalType": "address",
                    "name": "account",
                    "type": "address"
                }
            ],
            "name": "Unpaused",
            "type": "event"
        },
        {
            "inputs": [],
            "name": "DEFAULT_ADMIN_ROLE",
            "outputs": [
                {
                    "internalType": "bytes32",
                    "name": "",
                    "type": "bytes32"
                }
            ],
            "stateMutability": "view",
            "type": "function"
        },
        {
            "inputs": [],
            "name": "PAUSER_ROLE",
            "outputs": [
                {
                    "internalType": "bytes32",
                    "name": "",
                    "type": "bytes32"
                }
            ],
            "stateMutability": "view",
            "type": "function"
        },
        {
            "inputs": [
                {
                    "internalType": "bytes32",
                    "name": "role",
                    "type": "bytes32"
                }
            ],
            "name": "getRoleAdmin",
            "outputs": [
                {
                    "internalType": "bytes32",
                    "name": "",
                    "type": "bytes32"
                }
            ],
            "stateMutability": "view",
            "type": "function"
        },
        {
            "inputs": [
                {
                    "internalType": "bytes32",
                    "name": "role",
                    "type": "bytes32"
                },
                {
                    "internalType": "uint256",
                    "name": "index",
                    "type": "uint256"
                }
            ],
            "name": "getRoleMember",
            "outputs": [
                {
                    "internalType": "address",
                    "name": "",
                    "type": "address"
                }
            ],
            "stateMutability": "view",
            "type": "function"
        },
        {
            "inputs": [
                {
                    "internalType": "bytes32",
                    "name": "role",
                    "type": "bytes32"
                }
            ],
            "name": "getRoleMemberCount",
            "outputs": [
                {
                    "internalType": "uint256",
                    "name": "",
                    "type": "uint256"
                }
            ],
            "stateMutability": "view",
            "type": "function"
        },
        {
            "inputs": [
                {
                    "internalType": "bytes32",
                    "name": "role",
                    "type": "bytes32"
                },
                {
                    "internalType": "address",
                    "name": "account",
                    "type": "address"
                }
            ],
            "name": "grantRole",
            "outputs": [],
            "stateMutability": "nonpayable",
            "type": "function"
        },
        {
            "inputs": [
                {
                    "internalType": "bytes32",
                    "name": "role",
                    "type": "bytes32"
                },
                {
                    "internalType": "address",
                    "name": "account",
                    "type": "address"
                }
            ],
            "name": "hasRole",
            "outputs": [
                {
                    "internalType": "bool",
                    "name": "",
                    "type": "bool"
                }
            ],
            "stateMutability": "view",
            "type": "function"
        },
        {
            "inputs": [],
            "name": "mintableToken",
            "outputs": [
                {
                    "internalType": "contract IERC20MintableBurnable",
                    "name": "",
                    "type": "address"
                }
            ],
            "stateMutability": "view",
            "type": "function"
        },
        {
            "inputs": [],
            "name": "mintableTokenFeePercentage",
            "outputs": [
                {
                    "internalType": "uint256",
                    "name": "",
                    "type": "uint256"
                }
            ],
            "stateMutability": "view",
            "type": "function"
        },
        {
            "inputs": [],
            "name": "paused",
            "outputs": [
                {
                    "internalType": "bool",
                    "name": "",
                    "type": "bool"
                }
            ],
            "stateMutability": "view",
            "type": "function"
        },
        {
            "inputs": [],
            "name": "rate",
            "outputs": [
                {
                    "internalType": "uint256",
                    "name": "",
                    "type": "uint256"
                }
            ],
            "stateMutability": "view",
            "type": "function"
        },
        {
            "inputs": [
                {
                    "internalType": "bytes32",
                    "name": "role",
                    "type": "bytes32"
                },
                {
                    "internalType": "address",
                    "name": "account",
                    "type": "address"
                }
            ],
            "name": "renounceRole",
            "outputs": [],
            "stateMutability": "nonpayable",
            "type": "function"
        },
        {
            "inputs": [
                {
                    "internalType": "bytes32",
                    "name": "role",
                    "type": "bytes32"
                },
                {
                    "internalType": "address",
                    "name": "account",
                    "type": "address"
                }
            ],
            "name": "revokeRole",
            "outputs": [],
            "stateMutability": "nonpayable",
            "type": "function"
        },
        {
            "inputs": [
                {
                    "internalType": "uint256",
                    "name": "_transferTokenFeePercentage",
                    "type": "uint256"
                },
                {
                    "internalType": "uint256",
                    "name": "_mintableTokenFeePercentage",
                    "type": "uint256"
                }
            ],
            "name": "setFees",
            "outputs": [],
            "stateMutability": "nonpayable",
            "type": "function"
        },
        {
            "inputs": [
                {
                    "internalType": "uint256",
                    "name": "_rate",
                    "type": "uint256"
                }
            ],
            "name": "setRate",
            "outputs": [],
            "stateMutability": "nonpayable",
            "type": "function"
        },
        {
            "inputs": [
                {
                    "internalType": "bytes4",
                    "name": "interfaceId",
                    "type": "bytes4"
                }
            ],
            "name": "supportsInterface",
            "outputs": [
                {
                    "internalType": "bool",
                    "name": "",
                    "type": "bool"
                }
            ],
            "stateMutability": "view",
            "type": "function"
        },
        {
            "inputs": [
                {
                    "internalType": "uint256",
                    "name": "amount",
                    "type": "uint256"
                }
            ],
            "name": "swapMintableToTransfer",
            "outputs": [],
            "stateMutability": "nonpayable",
            "type": "function"
        },
        {
            "inputs": [
                {
                    "internalType": "uint256",
                    "name": "amount",
                    "type": "uint256"
                }
            ],
            "name": "swapTransferToMintable",
            "outputs": [],
            "stateMutability": "nonpayable",
            "type": "function"
        },
        {
            "inputs": [],
            "name": "transferToken",
            "outputs": [
                {
                    "internalType": "contract IERC20",
                    "name": "",
                    "type": "address"
                }
            ],
            "stateMutability": "view",
            "type": "function"
        },
        {
            "inputs": [],
            "name": "transferTokenFeePercentage",
            "outputs": [
                {
                    "internalType": "uint256",
                    "name": "",
                    "type": "uint256"
                }
            ],
            "stateMutability": "view",
            "type": "function"
        }
    ],
    "bytecode": "60806040523480156200001157600080fd5b506040516200173c3803806200173c833981016040819052620000349162000371565b6000805460ff1916905560016003556001600160a01b0386166200009f5760405162461bcd60e51b815260206004820152601960248201527f41646d696e20616464726573732063616e6e6f7420626520300000000000000060448201526064015b60405180910390fd5b6001600160a01b038516620001025760405162461bcd60e51b815260206004820152602260248201527f5472616e7366657220546f6b656e20616464726573732063616e6e6f74206265604482015261020360f41b606482015260840162000096565b6001600160a01b038416620001655760405162461bcd60e51b815260206004820152602260248201527f4d696e7461626c6520546f6b656e20616464726573732063616e6e6f74206265604482015261020360f41b606482015260840162000096565b60008311620001b75760405162461bcd60e51b815260206004820152601b60248201527f52617465206d7573742062652067726561746572207468616e20300000000000604482015260640162000096565b620001c460008762000207565b600480546001600160a01b039687166001600160a01b031991821617909155600580549590961694169390931790935560065560079190915560085550620003d7565b62000213828262000217565b5050565b6200022e82826200025a60201b620007e01760201c565b6000828152600260209081526040909120620002559183906200084b620002e2821b17901c565b505050565b60008281526001602090815260408083206001600160a01b038516845290915290205460ff16620002135760008281526001602081815260408084206001600160a01b0386168086529252808420805460ff19169093179092559051339285917f2f8788117e7eff1d82e926ec794901d17c78024a50270940304540a733656f0d9190a45050565b6000620002f9836001600160a01b03841662000302565b90505b92915050565b60008181526001830160205260408120546200034b57508154600181810184556000848152602080822090930184905584548482528286019093526040902091909155620002fc565b506000620002fc565b80516001600160a01b03811681146200036c57600080fd5b919050565b60008060008060008060c087890312156200038b57600080fd5b620003968762000354565b9550620003a66020880162000354565b9450620003b66040880162000354565b9350606087015192506080870151915060a087015190509295509295509295565b61135580620003e76000396000f3fe608060405234801561001057600080fd5b506004361061012c5760003560e01c806377aff484116100ad578063a217fddf11610071578063a217fddf14610280578063ca15c87314610288578063d547741f1461029b578063e63ab1e9146102ae578063f1047856146102d557600080fd5b806377aff48414610209578063799a53591461021c5780639010d07c1461024757806391d148541461025a57806395d38ea81461026d57600080fd5b806334fcf437116100f457806334fcf437146101bc57806336568abe146101cf57806350e9d538146101e25780635c975abb146101eb5780636e565c9e146101f657600080fd5b806301ffc9a7146101315780630b78f9c014610159578063248a9ca31461016e5780632c4e722e146101a05780632f2ff15d146101a9575b600080fd5b61014461013f366004611126565b6102de565b60405190151581526020015b60405180910390f35b61016c610167366004611104565b610309565b005b61019261017c3660046110af565b6000908152600160208190526040909120015490565b604051908152602001610150565b61019260065481565b61016c6101b73660046110c8565b61035c565b61016c6101ca3660046110af565b610387565b61016c6101dd3660046110c8565b610423565b61019260085481565b60005460ff16610144565b61016c6102043660046110af565b6104a1565b61016c6102173660046110af565b610606565b60045461022f906001600160a01b031681565b6040516001600160a01b039091168152602001610150565b61022f610255366004611104565b610759565b6101446102683660046110c8565b610778565b60055461022f906001600160a01b031681565b610192600081565b6101926102963660046110af565b6107a3565b61016c6102a93660046110c8565b6107ba565b6101927f65d7a28e3265b37a6474929f336521b332c1681b933f6cb9f3376673440d862a81565b61019260075481565b60006001600160e01b03198216635a05180f60e01b1480610303575061030382610860565b92915050565b600061031481610895565b6007839055600882905560408051848152602081018490527f93525d3c7f4fafe56faedbca6d501a13c63f47857d8b30d8282ec2dd806259a7910160405180910390a1505050565b6000828152600160208190526040909120015461037881610895565b610382838361089f565b505050565b600061039281610895565b600082116103e75760405162461bcd60e51b815260206004820152601b60248201527f52617465206d7573742062652067726561746572207468616e2030000000000060448201526064015b60405180910390fd5b60068290556040518281527faaeb483bfbd8cfd510c2bf9558f92d3b588e733adf62f05e2e3de2486d13279d9060200160405180910390a15050565b6001600160a01b03811633146104935760405162461bcd60e51b815260206004820152602f60248201527f416363657373436f6e74726f6c3a2063616e206f6e6c792072656e6f756e636560448201526e103937b632b9903337b91039b2b63360891b60648201526084016103de565b61049d82826108c1565b5050565b6104a96108e3565b6104b161092b565b600081116105015760405162461bcd60e51b815260206004820152601d60248201527f416d6f756e74206d7573742062652067726561746572207468616e203000000060448201526064016103de565b6000606460085483610513919061124e565b61051d919061122c565b9050600061052b828461126d565b905060006006548261053d919061124e565b60055460405163079cc67960e41b8152336004820152602481018790529192506001600160a01b0316906379cc679090604401600060405180830381600087803b15801561058a57600080fd5b505af115801561059e573d6000803e3d6000fd5b50506004546105ba92506001600160a01b031690503383610985565b604080518581526020810183905233917f74645b5c4b15d7deb5d975c6edb1d4a3aa999efb35dc657c3d60c36263cec6e091015b60405180910390a25050506106036001600355565b50565b61060e6108e3565b61061661092b565b600081116106665760405162461bcd60e51b815260206004820152601d60248201527f416d6f756e74206d7573742062652067726561746572207468616e203000000060448201526064016103de565b6000606460075483610678919061124e565b610682919061122c565b90506000610690828461126d565b90506000600654826106a2919061122c565b6004549091506106bd906001600160a01b03163330876109e8565b6005546040516340c10f1960e01b8152336004820152602481018390526001600160a01b03909116906340c10f1990604401600060405180830381600087803b15801561070957600080fd5b505af115801561071d573d6000803e3d6000fd5b505060408051878152602081018590523393507f4ef47d356d3e39bfac8d2822f7b0330b9c77f75797c41ddd5ab8045ec18457489250016105ee565b60008281526002602052604081206107719083610a26565b9392505050565b60009182526001602090815260408084206001600160a01b0393909316845291905290205460ff1690565b600081815260026020526040812061030390610a32565b600082815260016020819052604090912001546107d681610895565b61038283836108c1565b6107ea8282610778565b61049d5760008281526001602081815260408084206001600160a01b0386168086529252808420805460ff19169093179092559051339285917f2f8788117e7eff1d82e926ec794901d17c78024a50270940304540a733656f0d9190a45050565b6000610771836001600160a01b038416610a3c565b60006001600160e01b03198216637965db0b60e01b148061030357506301ffc9a760e01b6001600160e01b0319831614610303565b6106038133610a8b565b6108a982826107e0565b6000828152600260205260409020610382908261084b565b6108cb8282610ae4565b60008281526002602052604090206103829082610b4b565b60005460ff16156109295760405162461bcd60e51b815260206004820152601060248201526f14185d5cd8589b194e881c185d5cd95960821b60448201526064016103de565b565b6002600354141561097e5760405162461bcd60e51b815260206004820152601f60248201527f5265656e7472616e637947756172643a207265656e7472616e742063616c6c0060448201526064016103de565b6002600355565b6040516001600160a01b03831660248201526044810182905261038290849063a9059cbb60e01b906064015b60408051601f198184030181529190526020810180516001600160e01b03166001600160e01b031990931692909217909152610b60565b6040516001600160a01b0380851660248301528316604482015260648101829052610a209085906323b872dd60e01b906084016109b1565b50505050565b60006107718383610c35565b6000610303825490565b6000818152600183016020526040812054610a8357508154600181810184556000848152602080822090930184905584548482528286019093526040902091909155610303565b506000610303565b610a958282610778565b61049d57610aa281610c5f565b610aad836020610c71565b604051602001610abe92919061116c565b60408051601f198184030181529082905262461bcd60e51b82526103de916004016111e1565b610aee8282610778565b1561049d5760008281526001602090815260408083206001600160a01b0385168085529252808320805460ff1916905551339285917ff6391f5c32d9c69d2a47ea670b442974b53935d1edc7fd64eb21e047a839171b9190a45050565b6000610771836001600160a01b038416610e0d565b6000610bb5826040518060400160405280602081526020017f5361666545524332303a206c6f772d6c6576656c2063616c6c206661696c6564815250856001600160a01b0316610f009092919063ffffffff16565b9050805160001480610bd6575080806020019051810190610bd6919061108d565b6103825760405162461bcd60e51b815260206004820152602a60248201527f5361666545524332303a204552433230206f7065726174696f6e20646964206e6044820152691bdd081cdd58d8d9595960b21b60648201526084016103de565b6000826000018281548110610c4c57610c4c6112f3565b9060005260206000200154905092915050565b60606103036001600160a01b03831660145b60606000610c8083600261124e565b610c8b906002611214565b67ffffffffffffffff811115610ca357610ca3611309565b6040519080825280601f01601f191660200182016040528015610ccd576020820181803683370190505b509050600360fc1b81600081518110610ce857610ce86112f3565b60200101906001600160f81b031916908160001a905350600f60fb1b81600181518110610d1757610d176112f3565b60200101906001600160f81b031916908160001a9053506000610d3b84600261124e565b610d46906001611214565b90505b6001811115610dbe576f181899199a1a9b1b9c1cb0b131b232b360811b85600f1660108110610d7a57610d7a6112f3565b1a60f81b828281518110610d9057610d906112f3565b60200101906001600160f81b031916908160001a90535060049490941c93610db7816112b0565b9050610d49565b5083156107715760405162461bcd60e51b815260206004820181905260248201527f537472696e67733a20686578206c656e67746820696e73756666696369656e7460448201526064016103de565b60008181526001830160205260408120548015610ef6576000610e3160018361126d565b8554909150600090610e459060019061126d565b9050818114610eaa576000866000018281548110610e6557610e656112f3565b9060005260206000200154905080876000018481548110610e8857610e886112f3565b6000918252602080832090910192909255918252600188019052604090208390555b8554869080610ebb57610ebb6112dd565b600190038181906000526020600020016000905590558560010160008681526020019081526020016000206000905560019350505050610303565b6000915050610303565b6060610f0f8484600085610f17565b949350505050565b606082471015610f785760405162461bcd60e51b815260206004820152602660248201527f416464726573733a20696e73756666696369656e742062616c616e636520666f6044820152651c8818d85b1b60d21b60648201526084016103de565b600080866001600160a01b03168587604051610f949190611150565b60006040518083038185875af1925050503d8060008114610fd1576040519150601f19603f3d011682016040523d82523d6000602084013e610fd6565b606091505b5091509150610fe787838387610ff2565b979650505050505050565b6060831561105e578251611057576001600160a01b0385163b6110575760405162461bcd60e51b815260206004820152601d60248201527f416464726573733a2063616c6c20746f206e6f6e2d636f6e747261637400000060448201526064016103de565b5081610f0f565b610f0f83838151156110735781518083602001fd5b8060405162461bcd60e51b81526004016103de91906111e1565b60006020828403121561109f57600080fd5b8151801515811461077157600080fd5b6000602082840312156110c157600080fd5b5035919050565b600080604083850312156110db57600080fd5b8235915060208301356001600160a01b03811681146110f957600080fd5b809150509250929050565b6000806040838503121561111757600080fd5b50508035926020909101359150565b60006020828403121561113857600080fd5b81356001600160e01b03198116811461077157600080fd5b60008251611162818460208701611284565b9190910192915050565b7f416363657373436f6e74726f6c3a206163636f756e74200000000000000000008152600083516111a4816017850160208801611284565b7001034b99036b4b9b9b4b733903937b6329607d1b60179184019182015283516111d5816028840160208801611284565b01602801949350505050565b6020815260008251806020840152611200816040850160208701611284565b601f01601f19169190910160400192915050565b60008219821115611227576112276112c7565b500190565b60008261124957634e487b7160e01b600052601260045260246000fd5b500490565b6000816000190483118215151615611268576112686112c7565b500290565b60008282101561127f5761127f6112c7565b500390565b60005b8381101561129f578181015183820152602001611287565b83811115610a205750506000910152565b6000816112bf576112bf6112c7565b506000190190565b634e487b7160e01b600052601160045260246000fd5b634e487b7160e01b600052603160045260246000fd5b634e487b7160e01b600052603260045260246000fd5b634e487b7160e01b600052604160045260246000fdfea2646970667358221220687009159207a4a489ea44499a0fca7f12108fd1385afef4b754ed3c2a9269b264736f6c63430008070033",
    "sourcePath": "/Users/ekachai/maxion/tokenswap-contracts/contracts/TokenSwap.sol",
    "compiler": {
        "name": "solc",
        "version": "0.8.7+commit.e28d00a7"
    },
    "functionHashes": {
        "DEFAULT_ADMIN_ROLE()": "a217fddf",
        "PAUSER_ROLE()": "e63ab1e9",
        "getRoleAdmin(bytes32)": "248a9ca3",
        "getRoleMember(bytes32,uint256)": "9010d07c",
        "getRoleMemberCount(bytes32)": "ca15c873",
        "grantRole(bytes32,address)": "2f2ff15d",
        "hasRole(bytes32,address)": "91d14854",
        "mintableToken()": "95d38ea8",
        "mintableTokenFeePercentage()": "50e9d538",
        "paused()": "5c975abb",
        "rate()": "2c4e722e",
        "renounceRole(bytes32,address)": "36568abe",
        "revokeRole(bytes32,address)": "d547741f",
        "setFees(uint256,uint256)": "0b78f9c0",
        "setRate(uint256)": "34fcf437",
        "supportsInterface(bytes4)": "01ffc9a7",
        "swapMintableToTransfer(uint256)": "6e565c9e",
        "swapTransferToMintable(uint256)": "77aff484",
        "transferToken()": "799a5359",
        "transferTokenFeePercentage()": "f1047856"
    },
    "gasEstimates": {
        "creation": {
            "codeDepositCost": "989800",
            "executionCost": "infinite",
            "totalCost": "infinite"
        },
        "external": {
            "DEFAULT_ADMIN_ROLE()": "217",
            "PAUSER_ROLE()": "283",
            "getRoleAdmin(bytes32)": "2518",
            "getRoleMember(bytes32,uint256)": "infinite",
            "getRoleMemberCount(bytes32)": "infinite",
            "grantRole(bytes32,address)": "infinite",
            "hasRole(bytes32,address)": "2713",
            "mintableToken()": "2448",
            "mintableTokenFeePercentage()": "2362",
            "paused()": "2382",
            "rate()": "2385",
            "renounceRole(bytes32,address)": "infinite",
            "revokeRole(bytes32,address)": "infinite",
            "setFees(uint256,uint256)": "infinite",
            "setRate(uint256)": "infinite",
            "supportsInterface(bytes4)": "infinite",
            "swapMintableToTransfer(uint256)": "infinite",
            "swapTransferToMintable(uint256)": "infinite",
            "transferToken()": "2382",
            "transferTokenFeePercentage()": "2405"
        }
    }
}