{
    "contractName": "TokenSwap",
    "abi": [
        {
            "inputs": [
                {
                    "internalType": "address",
                    "name": "_admin",
                    "type": "address"
                },
                {
                    "internalType": "address",
                    "name": "_transferToken",
                    "type": "address"
                },
                {
                    "internalType": "address",
                    "name": "_mintableToken",
                    "type": "address"
                },
                {
                    "internalType": "uint256",
                    "name": "_rate",
                    "type": "uint256"
                },
                {
                    "internalType": "uint256",
                    "name": "_transferTokenFeePercentage",
                    "type": "uint256"
                },
                {
                    "internalType": "uint256",
                    "name": "_mintableTokenFeePercentage",
                    "type": "uint256"
                }
            ],
            "stateMutability": "nonpayable",
            "type": "constructor"
        },
        {
            "anonymous": false,
            "inputs": [
                {
                    "indexed": false,
                    "internalType": "uint256",
                    "name": "transferTokenFeePercentage",
                    "type": "uint256"
                },
                {
                    "indexed": false,
                    "internalType": "uint256",
                    "name": "mintableTokenFeePercentage",
                    "type": "uint256"
                }
            ],
            "name": "FeesSet",
            "type": "event"
        },
        {
            "anonymous": false,
            "inputs": [
                {
                    "indexed": false,
                    "internalType": "address",
                    "name": "account",
                    "type": "address"
                }
            ],
            "name": "Paused",
            "type": "event"
        },
        {
            "anonymous": false,
            "inputs": [
                {
                    "indexed": false,
                    "internalType": "uint256",
                    "name": "newRate",
                    "type": "uint256"
                }
            ],
            "name": "RateSet",
            "type": "event"
        },
        {
            "anonymous": false,
            "inputs": [
                {
                    "indexed": true,
                    "internalType": "bytes32",
                    "name": "role",
                    "type": "bytes32"
                },
                {
                    "indexed": true,
                    "internalType": "bytes32",
                    "name": "previousAdminRole",
                    "type": "bytes32"
                },
                {
                    "indexed": true,
                    "internalType": "bytes32",
                    "name": "newAdminRole",
                    "type": "bytes32"
                }
            ],
            "name": "RoleAdminChanged",
            "type": "event"
        },
        {
            "anonymous": false,
            "inputs": [
                {
                    "indexed": true,
                    "internalType": "bytes32",
                    "name": "role",
                    "type": "bytes32"
                },
                {
                    "indexed": true,
                    "internalType": "address",
                    "name": "account",
                    "type": "address"
                },
                {
                    "indexed": true,
                    "internalType": "address",
                    "name": "sender",
                    "type": "address"
                }
            ],
            "name": "RoleGranted",
            "type": "event"
        },
        {
            "anonymous": false,
            "inputs": [
                {
                    "indexed": true,
                    "internalType": "bytes32",
                    "name": "role",
                    "type": "bytes32"
                },
                {
                    "indexed": true,
                    "internalType": "address",
                    "name": "account",
                    "type": "address"
                },
                {
                    "indexed": true,
                    "internalType": "address",
                    "name": "sender",
                    "type": "address"
                }
            ],
            "name": "RoleRevoked",
            "type": "event"
        },
        {
            "anonymous": false,
            "inputs": [
                {
                    "indexed": true,
                    "internalType": "address",
                    "name": "user",
                    "type": "address"
                },
                {
                    "indexed": false,
                    "internalType": "uint256",
                    "name": "amount",
                    "type": "uint256"
                },
                {
                    "indexed": false,
                    "internalType": "uint256",
                    "name": "receivedAmount",
                    "type": "uint256"
                }
            ],
            "name": "SwappedMintableToTransfer",
            "type": "event"
        },
        {
            "anonymous": false,
            "inputs": [
                {
                    "indexed": true,
                    "internalType": "address",
                    "name": "user",
                    "type": "address"
                },
                {
                    "indexed": false,
                    "internalType": "uint256",
                    "name": "amount",
                    "type": "uint256"
                },
                {
                    "indexed": false,
                    "internalType": "uint256",
                    "name": "receivedAmount",
                    "type": "uint256"
                }
            ],
            "name": "SwappedTransferToMintable",
            "type": "event"
        },
        {
            "anonymous": false,
            "inputs": [
                {
                    "indexed": false,
                    "internalType": "address",
                    "name": "account",
                    "type": "address"
                }
            ],
            "name": "Unpaused",
            "type": "event"
        },
        {
            "inputs": [],
            "name": "DEFAULT_ADMIN_ROLE",
            "outputs": [
                {
                    "internalType": "bytes32",
                    "name": "",
                    "type": "bytes32"
                }
            ],
            "stateMutability": "view",
            "type": "function"
        },
        {
            "inputs": [],
            "name": "DENOMINATOR",
            "outputs": [
                {
                    "internalType": "uint256",
                    "name": "",
                    "type": "uint256"
                }
            ],
            "stateMutability": "view",
            "type": "function"
        },
        {
            "inputs": [],
            "name": "FEE_PERCENTAGE_MAX",
            "outputs": [
                {
                    "internalType": "uint256",
                    "name": "",
                    "type": "uint256"
                }
            ],
            "stateMutability": "view",
            "type": "function"
        },
        {
            "inputs": [],
            "name": "PAUSER_ROLE",
            "outputs": [
                {
                    "internalType": "bytes32",
                    "name": "",
                    "type": "bytes32"
                }
            ],
            "stateMutability": "view",
            "type": "function"
        },
        {
            "inputs": [
                {
                    "internalType": "uint256",
                    "name": "amount",
                    "type": "uint256"
                }
            ],
            "name": "getMintableAmount",
            "outputs": [
                {
                    "internalType": "uint256",
                    "name": "",
                    "type": "uint256"
                }
            ],
            "stateMutability": "view",
            "type": "function"
        },
        {
            "inputs": [
                {
                    "internalType": "bytes32",
                    "name": "role",
                    "type": "bytes32"
                }
            ],
            "name": "getRoleAdmin",
            "outputs": [
                {
                    "internalType": "bytes32",
                    "name": "",
                    "type": "bytes32"
                }
            ],
            "stateMutability": "view",
            "type": "function"
        },
        {
            "inputs": [
                {
                    "internalType": "bytes32",
                    "name": "role",
                    "type": "bytes32"
                },
                {
                    "internalType": "uint256",
                    "name": "index",
                    "type": "uint256"
                }
            ],
            "name": "getRoleMember",
            "outputs": [
                {
                    "internalType": "address",
                    "name": "",
                    "type": "address"
                }
            ],
            "stateMutability": "view",
            "type": "function"
        },
        {
            "inputs": [
                {
                    "internalType": "bytes32",
                    "name": "role",
                    "type": "bytes32"
                }
            ],
            "name": "getRoleMemberCount",
            "outputs": [
                {
                    "internalType": "uint256",
                    "name": "",
                    "type": "uint256"
                }
            ],
            "stateMutability": "view",
            "type": "function"
        },
        {
            "inputs": [
                {
                    "internalType": "uint256",
                    "name": "amount",
                    "type": "uint256"
                }
            ],
            "name": "getTransferAmount",
            "outputs": [
                {
                    "internalType": "uint256",
                    "name": "",
                    "type": "uint256"
                }
            ],
            "stateMutability": "view",
            "type": "function"
        },
        {
            "inputs": [
                {
                    "internalType": "bytes32",
                    "name": "role",
                    "type": "bytes32"
                },
                {
                    "internalType": "address",
                    "name": "account",
                    "type": "address"
                }
            ],
            "name": "grantRole",
            "outputs": [],
            "stateMutability": "nonpayable",
            "type": "function"
        },
        {
            "inputs": [
                {
                    "internalType": "bytes32",
                    "name": "role",
                    "type": "bytes32"
                },
                {
                    "internalType": "address",
                    "name": "account",
                    "type": "address"
                }
            ],
            "name": "hasRole",
            "outputs": [
                {
                    "internalType": "bool",
                    "name": "",
                    "type": "bool"
                }
            ],
            "stateMutability": "view",
            "type": "function"
        },
        {
            "inputs": [],
            "name": "mintableToken",
            "outputs": [
                {
                    "internalType": "contract IERC20MintableBurnable",
                    "name": "",
                    "type": "address"
                }
            ],
            "stateMutability": "view",
            "type": "function"
        },
        {
            "inputs": [],
            "name": "mintableTokenFeePercentage",
            "outputs": [
                {
                    "internalType": "uint256",
                    "name": "",
                    "type": "uint256"
                }
            ],
            "stateMutability": "view",
            "type": "function"
        },
        {
            "inputs": [],
            "name": "paused",
            "outputs": [
                {
                    "internalType": "bool",
                    "name": "",
                    "type": "bool"
                }
            ],
            "stateMutability": "view",
            "type": "function"
        },
        {
            "inputs": [],
            "name": "rate",
            "outputs": [
                {
                    "internalType": "uint256",
                    "name": "",
                    "type": "uint256"
                }
            ],
            "stateMutability": "view",
            "type": "function"
        },
        {
            "inputs": [
                {
                    "internalType": "bytes32",
                    "name": "role",
                    "type": "bytes32"
                },
                {
                    "internalType": "address",
                    "name": "account",
                    "type": "address"
                }
            ],
            "name": "renounceRole",
            "outputs": [],
            "stateMutability": "nonpayable",
            "type": "function"
        },
        {
            "inputs": [
                {
                    "internalType": "bytes32",
                    "name": "role",
                    "type": "bytes32"
                },
                {
                    "internalType": "address",
                    "name": "account",
                    "type": "address"
                }
            ],
            "name": "revokeRole",
            "outputs": [],
            "stateMutability": "nonpayable",
            "type": "function"
        },
        {
            "inputs": [
                {
                    "internalType": "uint256",
                    "name": "_transferTokenFeePercentage",
                    "type": "uint256"
                },
                {
                    "internalType": "uint256",
                    "name": "_mintableTokenFeePercentage",
                    "type": "uint256"
                }
            ],
            "name": "setFees",
            "outputs": [],
            "stateMutability": "nonpayable",
            "type": "function"
        },
        {
            "inputs": [
                {
                    "internalType": "uint256",
                    "name": "_rate",
                    "type": "uint256"
                }
            ],
            "name": "setRate",
            "outputs": [],
            "stateMutability": "nonpayable",
            "type": "function"
        },
        {
            "inputs": [
                {
                    "internalType": "bytes4",
                    "name": "interfaceId",
                    "type": "bytes4"
                }
            ],
            "name": "supportsInterface",
            "outputs": [
                {
                    "internalType": "bool",
                    "name": "",
                    "type": "bool"
                }
            ],
            "stateMutability": "view",
            "type": "function"
        },
        {
            "inputs": [
                {
                    "internalType": "uint256",
                    "name": "amount",
                    "type": "uint256"
                }
            ],
            "name": "swapMintableToTransfer",
            "outputs": [],
            "stateMutability": "nonpayable",
            "type": "function"
        },
        {
            "inputs": [
                {
                    "internalType": "uint256",
                    "name": "amount",
                    "type": "uint256"
                }
            ],
            "name": "swapTransferToMintable",
            "outputs": [],
            "stateMutability": "nonpayable",
            "type": "function"
        },
        {
            "inputs": [],
            "name": "transferToken",
            "outputs": [
                {
                    "internalType": "contract IERC20",
                    "name": "",
                    "type": "address"
                }
            ],
            "stateMutability": "view",
            "type": "function"
        },
        {
            "inputs": [],
            "name": "transferTokenFeePercentage",
            "outputs": [
                {
                    "internalType": "uint256",
                    "name": "",
                    "type": "uint256"
                }
            ],
            "stateMutability": "view",
            "type": "function"
        }
    ],
    "bytecode": "60806040523480156200001157600080fd5b5060405162001b5738038062001b578339810160408190526200003491620004a0565b6000805460ff1916905560016003556001600160a01b038616620000ab5760405162461bcd60e51b8152602060048201526024808201527f546f6b656e537761703a2041646d696e20616464726573732063616e6e6f74206044820152630626520360e41b60648201526084015b60405180910390fd5b6001600160a01b038516620001195760405162461bcd60e51b815260206004820152602d60248201527f546f6b656e537761703a205472616e7366657220546f6b656e2061646472657360448201526c0732063616e6e6f74206265203609c1b6064820152608401620000a2565b6001600160a01b038416620001875760405162461bcd60e51b815260206004820152602d60248201527f546f6b656e537761703a204d696e7461626c6520546f6b656e2061646472657360448201526c0732063616e6e6f74206265203609c1b6064820152608401620000a2565b60008311620001e85760405162461bcd60e51b815260206004820152602660248201527f546f6b656e537761703a2052617465206d75737420626520677265617465722060448201526507468616e20360d41b6064820152608401620000a2565b6402540be400821115620002675760405162461bcd60e51b815260206004820152604a60248201527f546f6b656e537761703a205472616e7366657220546f6b656e20666565207065604482015260008051602062001b37833981519152606482015269075616c20746f203130360b41b608482015260a401620000a2565b6402540be400811115620002e65760405162461bcd60e51b815260206004820152604a60248201527f546f6b656e537761703a204d696e7461626c6520546f6b656e20666565207065604482015260008051602062001b37833981519152606482015269075616c20746f203130360b41b608482015260a401620000a2565b620002f360008762000336565b600480546001600160a01b039687166001600160a01b03199182161790915560058054959096169416939093179093556006556007919091556008555062000506565b62000342828262000346565b5050565b6200035d82826200038960201b62000a641760201c565b60008281526002602090815260409091206200038491839062000acf62000411821b17901c565b505050565b60008281526001602090815260408083206001600160a01b038516845290915290205460ff16620003425760008281526001602081815260408084206001600160a01b0386168086529252808420805460ff19169093179092559051339285917f2f8788117e7eff1d82e926ec794901d17c78024a50270940304540a733656f0d9190a45050565b600062000428836001600160a01b03841662000431565b90505b92915050565b60008181526001830160205260408120546200047a575081546001818101845560008481526020808220909301849055845484825282860190935260409020919091556200042b565b5060006200042b565b80516001600160a01b03811681146200049b57600080fd5b919050565b60008060008060008060c08789031215620004ba57600080fd5b620004c58762000483565b9550620004d56020880162000483565b9450620004e56040880162000483565b9350606087015192506080870151915060a087015190509295509295509295565b61162180620005166000396000f3fe608060405234801561001057600080fd5b50600436106101585760003560e01c8063799a5359116100c3578063b0bf358c1161007c578063b0bf358c146102c0578063ca15c873146102d3578063d547741f146102e6578063de63e58e146102f9578063e63ab1e91461030c578063f10478561461033357600080fd5b8063799a5359146102545780639010d07c1461027f578063918f86741461020e57806391d148541461029257806395d38ea8146102a5578063a217fddf146102b857600080fd5b806336568abe1161011557806336568abe146101fb57806340302bc71461020e57806350e9d5381461021a5780635c975abb146102235780636e565c9e1461022e57806377aff4841461024157600080fd5b806301ffc9a71461015d5780630b78f9c014610185578063248a9ca31461019a5780632c4e722e146101cc5780632f2ff15d146101d557806334fcf437146101e8575b600080fd5b61017061016b3660046113aa565b61033c565b60405190151581526020015b60405180910390f35b610198610193366004611388565b610367565b005b6101be6101a8366004611333565b6000908152600160208190526040909120015490565b60405190815260200161017c565b6101be60065481565b6101986101e336600461134c565b6104db565b6101986101f6366004611333565b610506565b61019861020936600461134c565b6105ac565b6101be6402540be40081565b6101be60085481565b60005460ff16610170565b61019861023c366004611333565b61062a565b61019861024f366004611333565b610788565b600454610267906001600160a01b031681565b6040516001600160a01b03909116815260200161017c565b61026761028d366004611388565b6108d3565b6101706102a036600461134c565b6108f2565b600554610267906001600160a01b031681565b6101be600081565b6101be6102ce366004611333565b61091d565b6101be6102e1366004611333565b6109ab565b6101986102f436600461134c565b6109c2565b6101be610307366004611333565b6109e8565b6101be7f65d7a28e3265b37a6474929f336521b332c1681b933f6cb9f3376673440d862a81565b6101be60075481565b60006001600160e01b03198216635a05180f60e01b1480610361575061036182610ae4565b92915050565b600061037281610b19565b6402540be4008311156104055760405162461bcd60e51b815260206004820152604a60248201527f546f6b656e537761703a205472616e7366657220546f6b656e2066656520706560448201527f7263656e74616765206d757374206265206c657373207468616e206f72206571606482015269075616c20746f203130360b41b608482015260a4015b60405180910390fd5b6402540be4008211156104935760405162461bcd60e51b815260206004820152604a60248201527f546f6b656e537761703a204d696e7461626c6520546f6b656e2066656520706560448201527f7263656e74616765206d757374206265206c657373207468616e206f72206571606482015269075616c20746f203130360b41b608482015260a4016103fc565b6007839055600882905560408051848152602081018490527f93525d3c7f4fafe56faedbca6d501a13c63f47857d8b30d8282ec2dd806259a7910160405180910390a1505050565b600082815260016020819052604090912001546104f781610b19565b6105018383610b23565b505050565b600061051181610b19565b600082116105705760405162461bcd60e51b815260206004820152602660248201527f546f6b656e537761703a2052617465206d75737420626520677265617465722060448201526507468616e20360d41b60648201526084016103fc565b60068290556040518281527faaeb483bfbd8cfd510c2bf9558f92d3b588e733adf62f05e2e3de2486d13279d9060200160405180910390a15050565b6001600160a01b038116331461061c5760405162461bcd60e51b815260206004820152602f60248201527f416363657373436f6e74726f6c3a2063616e206f6e6c792072656e6f756e636560448201526e103937b632b9903337b91039b2b63360891b60648201526084016103fc565b6106268282610b45565b5050565b610632610b67565b61063a610baf565b6000811161065a5760405162461bcd60e51b81526004016103fc90611498565b60006402540be40060085483610670919061151a565b61067a91906114f8565b905060006106888284611539565b90506000670de0b6b3a7640000600654836106a3919061151a565b6106b590670de0b6b3a764000061151a565b6106bf91906114f8565b60055460405163079cc67960e41b8152336004820152602481018790529192506001600160a01b0316906379cc679090604401600060405180830381600087803b15801561070c57600080fd5b505af1158015610720573d6000803e3d6000fd5b505060045461073c92506001600160a01b031690503383610c09565b604080518581526020810183905233917f74645b5c4b15d7deb5d975c6edb1d4a3aa999efb35dc657c3d60c36263cec6e091015b60405180910390a25050506107856001600355565b50565b610790610b67565b610798610baf565b600081116107b85760405162461bcd60e51b81526004016103fc90611498565b60006402540be400600754836107ce919061151a565b6107d891906114f8565b905060006107e68284611539565b90506000600654670de0b6b3a7640000610800919061151a565b61081283670de0b6b3a764000061151a565b61081c91906114f8565b600454909150610837906001600160a01b0316333087610c6c565b6005546040516340c10f1960e01b8152336004820152602481018390526001600160a01b03909116906340c10f1990604401600060405180830381600087803b15801561088357600080fd5b505af1158015610897573d6000803e3d6000fd5b505060408051878152602081018590523393507f4ef47d356d3e39bfac8d2822f7b0330b9c77f75797c41ddd5ab8045ec1845748925001610770565b60008281526002602052604081206108eb9083610caa565b9392505050565b60009182526001602090815260408084206001600160a01b0393909316845291905290205460ff1690565b600080821161093e5760405162461bcd60e51b81526004016103fc90611498565b60006402540be40060075484610954919061151a565b61095e91906114f8565b9050600061096c8285611539565b90506000600654670de0b6b3a7640000610986919061151a565b61099883670de0b6b3a764000061151a565b6109a291906114f8565b95945050505050565b600081815260026020526040812061036190610cb6565b600082815260016020819052604090912001546109de81610b19565b6105018383610b45565b6000808211610a095760405162461bcd60e51b81526004016103fc90611498565b60006402540be40060085484610a1f919061151a565b610a2991906114f8565b90506000610a378285611539565b90506000670de0b6b3a764000060065483610a52919061151a565b61099890670de0b6b3a764000061151a565b610a6e82826108f2565b6106265760008281526001602081815260408084206001600160a01b0386168086529252808420805460ff19169093179092559051339285917f2f8788117e7eff1d82e926ec794901d17c78024a50270940304540a733656f0d9190a45050565b60006108eb836001600160a01b038416610cc0565b60006001600160e01b03198216637965db0b60e01b148061036157506301ffc9a760e01b6001600160e01b0319831614610361565b6107858133610d0f565b610b2d8282610a64565b60008281526002602052604090206105019082610acf565b610b4f8282610d68565b60008281526002602052604090206105019082610dcf565b60005460ff1615610bad5760405162461bcd60e51b815260206004820152601060248201526f14185d5cd8589b194e881c185d5cd95960821b60448201526064016103fc565b565b60026003541415610c025760405162461bcd60e51b815260206004820152601f60248201527f5265656e7472616e637947756172643a207265656e7472616e742063616c6c0060448201526064016103fc565b6002600355565b6040516001600160a01b03831660248201526044810182905261050190849063a9059cbb60e01b906064015b60408051601f198184030181529190526020810180516001600160e01b03166001600160e01b031990931692909217909152610de4565b6040516001600160a01b0380851660248301528316604482015260648101829052610ca49085906323b872dd60e01b90608401610c35565b50505050565b60006108eb8383610eb9565b6000610361825490565b6000818152600183016020526040812054610d0757508154600181810184556000848152602080822090930184905584548482528286019093526040902091909155610361565b506000610361565b610d1982826108f2565b61062657610d2681610ee3565b610d31836020610ef5565b604051602001610d429291906113f0565b60408051601f198184030181529082905262461bcd60e51b82526103fc91600401611465565b610d7282826108f2565b156106265760008281526001602090815260408083206001600160a01b0385168085529252808320805460ff1916905551339285917ff6391f5c32d9c69d2a47ea670b442974b53935d1edc7fd64eb21e047a839171b9190a45050565b60006108eb836001600160a01b038416611091565b6000610e39826040518060400160405280602081526020017f5361666545524332303a206c6f772d6c6576656c2063616c6c206661696c6564815250856001600160a01b03166111849092919063ffffffff16565b9050805160001480610e5a575080806020019051810190610e5a9190611311565b6105015760405162461bcd60e51b815260206004820152602a60248201527f5361666545524332303a204552433230206f7065726174696f6e20646964206e6044820152691bdd081cdd58d8d9595960b21b60648201526084016103fc565b6000826000018281548110610ed057610ed06115bf565b9060005260206000200154905092915050565b60606103616001600160a01b03831660145b60606000610f0483600261151a565b610f0f9060026114e0565b67ffffffffffffffff811115610f2757610f276115d5565b6040519080825280601f01601f191660200182016040528015610f51576020820181803683370190505b509050600360fc1b81600081518110610f6c57610f6c6115bf565b60200101906001600160f81b031916908160001a905350600f60fb1b81600181518110610f9b57610f9b6115bf565b60200101906001600160f81b031916908160001a9053506000610fbf84600261151a565b610fca9060016114e0565b90505b6001811115611042576f181899199a1a9b1b9c1cb0b131b232b360811b85600f1660108110610ffe57610ffe6115bf565b1a60f81b828281518110611014576110146115bf565b60200101906001600160f81b031916908160001a90535060049490941c9361103b8161157c565b9050610fcd565b5083156108eb5760405162461bcd60e51b815260206004820181905260248201527f537472696e67733a20686578206c656e67746820696e73756666696369656e7460448201526064016103fc565b6000818152600183016020526040812054801561117a5760006110b5600183611539565b85549091506000906110c990600190611539565b905081811461112e5760008660000182815481106110e9576110e96115bf565b906000526020600020015490508087600001848154811061110c5761110c6115bf565b6000918252602080832090910192909255918252600188019052604090208390555b855486908061113f5761113f6115a9565b600190038181906000526020600020016000905590558560010160008681526020019081526020016000206000905560019350505050610361565b6000915050610361565b6060611193848460008561119b565b949350505050565b6060824710156111fc5760405162461bcd60e51b815260206004820152602660248201527f416464726573733a20696e73756666696369656e742062616c616e636520666f6044820152651c8818d85b1b60d21b60648201526084016103fc565b600080866001600160a01b0316858760405161121891906113d4565b60006040518083038185875af1925050503d8060008114611255576040519150601f19603f3d011682016040523d82523d6000602084013e61125a565b606091505b509150915061126b87838387611276565b979650505050505050565b606083156112e25782516112db576001600160a01b0385163b6112db5760405162461bcd60e51b815260206004820152601d60248201527f416464726573733a2063616c6c20746f206e6f6e2d636f6e747261637400000060448201526064016103fc565b5081611193565b61119383838151156112f75781518083602001fd5b8060405162461bcd60e51b81526004016103fc9190611465565b60006020828403121561132357600080fd5b815180151581146108eb57600080fd5b60006020828403121561134557600080fd5b5035919050565b6000806040838503121561135f57600080fd5b8235915060208301356001600160a01b038116811461137d57600080fd5b809150509250929050565b6000806040838503121561139b57600080fd5b50508035926020909101359150565b6000602082840312156113bc57600080fd5b81356001600160e01b0319811681146108eb57600080fd5b600082516113e6818460208701611550565b9190910192915050565b7f416363657373436f6e74726f6c3a206163636f756e7420000000000000000000815260008351611428816017850160208801611550565b7001034b99036b4b9b9b4b733903937b6329607d1b6017918401918201528351611459816028840160208801611550565b01602801949350505050565b6020815260008251806020840152611484816040850160208701611550565b601f01601f19169190910160400192915050565b60208082526028908201527f546f6b656e537761703a20416d6f756e74206d75737420626520677265617465604082015267072207468616e20360c41b606082015260800190565b600082198211156114f3576114f3611593565b500190565b60008261151557634e487b7160e01b600052601260045260246000fd5b500490565b600081600019048311821515161561153457611534611593565b500290565b60008282101561154b5761154b611593565b500390565b60005b8381101561156b578181015183820152602001611553565b83811115610ca45750506000910152565b60008161158b5761158b611593565b506000190190565b634e487b7160e01b600052601160045260246000fd5b634e487b7160e01b600052603160045260246000fd5b634e487b7160e01b600052603260045260246000fd5b634e487b7160e01b600052604160045260246000fdfea26469706673582212200f682f7e68ac1b92eaaf222f7baef6a1279289cd39afb603e918988095ad547464736f6c634300080700337263656e74616765206d757374206265206c657373207468616e206f72206571",
    "sourcePath": "/Users/ekachai/maxion/tokenswap-contracts/contracts/TokenSwap.sol",
    "compiler": {
        "name": "solc",
        "version": "0.8.7+commit.e28d00a7"
    },
    "functionHashes": {
        "DEFAULT_ADMIN_ROLE()": "a217fddf",
        "DENOMINATOR()": "918f8674",
        "FEE_PERCENTAGE_MAX()": "40302bc7",
        "PAUSER_ROLE()": "e63ab1e9",
        "getMintableAmount(uint256)": "b0bf358c",
        "getRoleAdmin(bytes32)": "248a9ca3",
        "getRoleMember(bytes32,uint256)": "9010d07c",
        "getRoleMemberCount(bytes32)": "ca15c873",
        "getTransferAmount(uint256)": "de63e58e",
        "grantRole(bytes32,address)": "2f2ff15d",
        "hasRole(bytes32,address)": "91d14854",
        "mintableToken()": "95d38ea8",
        "mintableTokenFeePercentage()": "50e9d538",
        "paused()": "5c975abb",
        "rate()": "2c4e722e",
        "renounceRole(bytes32,address)": "36568abe",
        "revokeRole(bytes32,address)": "d547741f",
        "setFees(uint256,uint256)": "0b78f9c0",
        "setRate(uint256)": "34fcf437",
        "supportsInterface(bytes4)": "01ffc9a7",
        "swapMintableToTransfer(uint256)": "6e565c9e",
        "swapTransferToMintable(uint256)": "77aff484",
        "transferToken()": "799a5359",
        "transferTokenFeePercentage()": "f1047856"
    },
    "gasEstimates": {
        "creation": {
            "codeDepositCost": "1133000",
            "executionCost": "infinite",
            "totalCost": "infinite"
        },
        "external": {
            "DEFAULT_ADMIN_ROLE()": "328",
            "DENOMINATOR()": "262",
            "FEE_PERCENTAGE_MAX()": "240",
            "PAUSER_ROLE()": "305",
            "getMintableAmount(uint256)": "infinite",
            "getRoleAdmin(bytes32)": "2518",
            "getRoleMember(bytes32,uint256)": "infinite",
            "getRoleMemberCount(bytes32)": "infinite",
            "getTransferAmount(uint256)": "infinite",
            "grantRole(bytes32,address)": "infinite",
            "hasRole(bytes32,address)": "2713",
            "mintableToken()": "2448",
            "mintableTokenFeePercentage()": "2362",
            "paused()": "2382",
            "rate()": "2385",
            "renounceRole(bytes32,address)": "infinite",
            "revokeRole(bytes32,address)": "infinite",
            "setFees(uint256,uint256)": "infinite",
            "setRate(uint256)": "infinite",
            "supportsInterface(bytes4)": "infinite",
            "swapMintableToTransfer(uint256)": "infinite",
            "swapTransferToMintable(uint256)": "infinite",
            "transferToken()": "2360",
            "transferTokenFeePercentage()": "2427"
        }
    }
}